{
  "contractName": "PaymentProcessor",
  "abi": [
    {
      "inputs": [
        {
          "internalType": "address",
          "name": "tokenAddress",
          "type": "address"
        }
      ],
      "stateMutability": "nonpayable",
      "type": "constructor"
    },
    {
      "anonymous": false,
      "inputs": [
        {
          "indexed": true,
          "internalType": "string",
          "name": "_waybillID",
          "type": "string"
        },
        {
          "indexed": true,
          "internalType": "address",
          "name": "_from",
          "type": "address"
        },
        {
          "indexed": false,
          "internalType": "uint256",
          "name": "_amount",
          "type": "uint256"
        },
        {
          "indexed": false,
          "internalType": "address",
          "name": "_to",
          "type": "address"
        },
        {
          "indexed": true,
          "internalType": "uint256",
          "name": "_date",
          "type": "uint256"
        }
      ],
      "name": "AmountFrozen",
      "type": "event"
    },
    {
      "anonymous": false,
      "inputs": [
        {
          "indexed": true,
          "internalType": "address",
          "name": "_from",
          "type": "address"
        },
        {
          "indexed": true,
          "internalType": "address",
          "name": "_to",
          "type": "address"
        },
        {
          "indexed": false,
          "internalType": "uint256",
          "name": "_amount",
          "type": "uint256"
        },
        {
          "indexed": false,
          "internalType": "uint256",
          "name": "_waybillID",
          "type": "uint256"
        },
        {
          "indexed": true,
          "internalType": "uint256",
          "name": "_date",
          "type": "uint256"
        }
      ],
      "name": "ContractRegistered",
      "type": "event"
    },
    {
      "anonymous": false,
      "inputs": [
        {
          "indexed": true,
          "internalType": "string",
          "name": "_waybillID",
          "type": "string"
        },
        {
          "indexed": true,
          "internalType": "address",
          "name": "_from",
          "type": "address"
        },
        {
          "indexed": false,
          "internalType": "uint256",
          "name": "_amount",
          "type": "uint256"
        },
        {
          "indexed": false,
          "internalType": "address",
          "name": "_to",
          "type": "address"
        },
        {
          "indexed": true,
          "internalType": "uint256",
          "name": "_date",
          "type": "uint256"
        }
      ],
      "name": "PaidReceiver",
      "type": "event"
    },
    {
      "anonymous": false,
      "inputs": [
        {
          "indexed": false,
          "internalType": "address",
          "name": "payer",
          "type": "address"
        },
        {
          "indexed": false,
          "internalType": "uint256",
          "name": "amount",
          "type": "uint256"
        },
        {
          "indexed": false,
          "internalType": "uint256",
          "name": "paymentId",
          "type": "uint256"
        },
        {
          "indexed": false,
          "internalType": "uint256",
          "name": "date",
          "type": "uint256"
        }
      ],
      "name": "PaymentDone",
      "type": "event"
    },
    {
      "anonymous": false,
      "inputs": [
        {
          "indexed": true,
          "internalType": "address",
          "name": "_to",
          "type": "address"
        },
        {
          "indexed": false,
          "internalType": "uint256",
          "name": "_amount",
          "type": "uint256"
        },
        {
          "indexed": true,
          "internalType": "uint256",
          "name": "_date",
          "type": "uint256"
        }
      ],
      "name": "TokenBought",
      "type": "event"
    },
    {
      "anonymous": false,
      "inputs": [
        {
          "indexed": true,
          "internalType": "address",
          "name": "_from",
          "type": "address"
        },
        {
          "indexed": false,
          "internalType": "uint256",
          "name": "_amount",
          "type": "uint256"
        },
        {
          "indexed": true,
          "internalType": "uint256",
          "name": "_date",
          "type": "uint256"
        }
      ],
      "name": "TokenSold",
      "type": "event"
    },
    {
      "inputs": [],
      "name": "admin",
      "outputs": [
        {
          "internalType": "address",
          "name": "",
          "type": "address"
        }
      ],
      "stateMutability": "view",
      "type": "function",
      "constant": true
    },
    {
      "inputs": [],
      "name": "token",
      "outputs": [
        {
          "internalType": "contract IERC20",
          "name": "",
          "type": "address"
        }
      ],
      "stateMutability": "view",
      "type": "function",
      "constant": true
    },
    {
      "inputs": [
        {
          "internalType": "string",
          "name": "_paymentID",
          "type": "string"
        },
        {
          "internalType": "uint256",
          "name": "_amount",
          "type": "uint256"
        }
      ],
      "name": "userToContract",
      "outputs": [],
      "stateMutability": "nonpayable",
      "type": "function"
    },
    {
      "inputs": [
        {
          "internalType": "address payable",
          "name": "_to",
          "type": "address"
        },
        {
          "internalType": "uint256",
          "name": "_amount",
          "type": "uint256"
        },
        {
          "internalType": "string",
          "name": "_paymentID",
          "type": "string"
        },
        {
          "internalType": "address",
          "name": "_from",
          "type": "address"
        }
      ],
      "name": "transferFromContractToReceiver",
      "outputs": [],
      "stateMutability": "nonpayable",
      "type": "function"
    },
    {
      "inputs": [
        {
          "internalType": "uint256",
          "name": "_amount",
          "type": "uint256"
        }
      ],
      "name": "buyToken",
      "outputs": [],
      "stateMutability": "nonpayable",
      "type": "function"
    },
    {
      "inputs": [
        {
          "internalType": "uint256",
          "name": "_amount",
          "type": "uint256"
        }
      ],
      "name": "sellToken",
      "outputs": [],
      "stateMutability": "nonpayable",
      "type": "function"
    },
    {
      "inputs": [
        {
          "internalType": "address",
          "name": "_tokenAddress",
          "type": "address"
        }
      ],
      "name": "resetToken",
      "outputs": [],
      "stateMutability": "nonpayable",
      "type": "function"
    },
    {
      "inputs": [],
      "name": "balanceOfContractToken",
      "outputs": [
        {
          "internalType": "uint256",
          "name": "",
          "type": "uint256"
        }
      ],
      "stateMutability": "view",
      "type": "function",
      "constant": true
    }
  ],
  "bytecode": "0x608060405234801561001057600080fd5b50604051610f64380380610f64833981810160405281019061003291906100ce565b336000806101000a81548173ffffffffffffffffffffffffffffffffffffffff021916908373ffffffffffffffffffffffffffffffffffffffff16021790555080600160006101000a81548173ffffffffffffffffffffffffffffffffffffffff021916908373ffffffffffffffffffffffffffffffffffffffff16021790555050610140565b6000815190506100c881610129565b92915050565b6000602082840312156100e057600080fd5b60006100ee848285016100b9565b91505092915050565b600061010282610109565b9050919050565b600073ffffffffffffffffffffffffffffffffffffffff82169050919050565b610132816100f7565b811461013d57600080fd5b50565b610e158061014f6000396000f3fe608060405234801561001057600080fd5b50600436106100885760003560e01c80637db9aed91161005b5780637db9aed9146100fd5780638d6b68961461011b578063f851a44014610137578063fc0c546a1461015557610088565b80632397e4d71461008d5780632d296bf1146100a9578063369aca9b146100c55780637a29afe3146100e1575b600080fd5b6100a760048036038101906100a29190610974565b610173565b005b6100c360048036038101906100be9190610974565b610277565b005b6100df60048036038101906100da919061087c565b610379565b005b6100fb60048036038101906100f69190610853565b610496565b005b6101056104da565b6040516101129190610b69565b60405180910390f35b61013560048036038101906101309190610920565b61061b565b005b61013f610738565b60405161014c9190610a8a565b60405180910390f35b61015d61075c565b60405161016a9190610b2e565b60405180910390f35b600160009054906101000a900473ffffffffffffffffffffffffffffffffffffffff1673ffffffffffffffffffffffffffffffffffffffff166323b872dd3330846040518463ffffffff1660e01b81526004016101d293929190610ace565b602060405180830381600087803b1580156101ec57600080fd5b505af1158015610200573d6000803e3d6000fd5b505050506040513d601f19601f8201168201806040525081019061022491906108f7565b50423373ffffffffffffffffffffffffffffffffffffffff167f35ea94addbc62df281ade49cc2ad9b3d9259166170cf702928b4ddc045f7256e8360405161026c9190610b69565b60405180910390a350565b600160009054906101000a900473ffffffffffffffffffffffffffffffffffffffff1673ffffffffffffffffffffffffffffffffffffffff1663a9059cbb33836040518363ffffffff1660e01b81526004016102d4929190610b05565b602060405180830381600087803b1580156102ee57600080fd5b505af1158015610302573d6000803e3d6000fd5b505050506040513d601f19601f8201168201806040525081019061032691906108f7565b50423373ffffffffffffffffffffffffffffffffffffffff167f28cab0d660ed8aedd61a8c9db00b97f6a2d67e07d87795994f440b18bc5f1aa38360405161036e9190610b69565b60405180910390a350565b600160009054906101000a900473ffffffffffffffffffffffffffffffffffffffff1673ffffffffffffffffffffffffffffffffffffffff1663a9059cbb85856040518363ffffffff1660e01b81526004016103d6929190610aa5565b602060405180830381600087803b1580156103f057600080fd5b505af1158015610404573d6000803e3d6000fd5b505050506040513d601f19601f8201168201806040525081019061042891906108f7565b50428173ffffffffffffffffffffffffffffffffffffffff168360405161044f9190610a73565b60405180910390207fbc6673b5b827c854ac9035543ce08bd502f4a1066bc52fb513d402546c9d1ec98688604051610488929190610bad565b60405180910390a450505050565b80600160006101000a81548173ffffffffffffffffffffffffffffffffffffffff021916908373ffffffffffffffffffffffffffffffffffffffff16021790555050565b60008060009054906101000a900473ffffffffffffffffffffffffffffffffffffffff1673ffffffffffffffffffffffffffffffffffffffff163373ffffffffffffffffffffffffffffffffffffffff161461056b576040517f08c379a000000000000000000000000000000000000000000000000000000000815260040161056290610b49565b60405180910390fd5b600160009054906101000a900473ffffffffffffffffffffffffffffffffffffffff1673ffffffffffffffffffffffffffffffffffffffff166370a08231306040518263ffffffff1660e01b81526004016105c69190610a8a565b60206040518083038186803b1580156105de57600080fd5b505afa1580156105f2573d6000803e3d6000fd5b505050506040513d601f19601f82011682018060405250810190610616919061099d565b905090565b600160009054906101000a900473ffffffffffffffffffffffffffffffffffffffff1673ffffffffffffffffffffffffffffffffffffffff166323b872dd3330846040518463ffffffff1660e01b815260040161067a93929190610ace565b602060405180830381600087803b15801561069457600080fd5b505af11580156106a8573d6000803e3d6000fd5b505050506040513d601f19601f820116820180604052508101906106cc91906108f7565b50423373ffffffffffffffffffffffffffffffffffffffff16836040516106f39190610a73565b60405180910390207fcfe480a891e1553dd4eee271325cd813a6453a2fde2227a8ee0a9dec882e5c3d843060405161072c929190610b84565b60405180910390a45050565b60008054906101000a900473ffffffffffffffffffffffffffffffffffffffff1681565b600160009054906101000a900473ffffffffffffffffffffffffffffffffffffffff1681565b600061079561079084610c07565b610bd6565b9050828152602081018484840111156107ad57600080fd5b6107b8848285610d12565b509392505050565b6000813590506107cf81610d83565b92915050565b6000813590506107e481610d9a565b92915050565b6000815190506107f981610db1565b92915050565b600082601f83011261081057600080fd5b8135610820848260208601610782565b91505092915050565b60008135905061083881610dc8565b92915050565b60008151905061084d81610dc8565b92915050565b60006020828403121561086557600080fd5b6000610873848285016107c0565b91505092915050565b6000806000806080858703121561089257600080fd5b60006108a0878288016107d5565b94505060206108b187828801610829565b935050604085013567ffffffffffffffff8111156108ce57600080fd5b6108da878288016107ff565b92505060606108eb878288016107c0565b91505092959194509250565b60006020828403121561090957600080fd5b6000610917848285016107ea565b91505092915050565b6000806040838503121561093357600080fd5b600083013567ffffffffffffffff81111561094d57600080fd5b610959858286016107ff565b925050602061096a85828601610829565b9150509250929050565b60006020828403121561098657600080fd5b600061099484828501610829565b91505092915050565b6000602082840312156109af57600080fd5b60006109bd8482850161083e565b91505092915050565b6109cf81610cb8565b82525050565b6109de81610c5e565b82525050565b6109ed81610cca565b82525050565b60006109fe82610c37565b610a088185610c53565b9350610a18818560208601610d21565b80840191505092915050565b6000610a31601383610c42565b91507f43616c6c6572206973206e6f742061646d696e000000000000000000000000006000830152602082019050919050565b610a6d81610cae565b82525050565b6000610a7f82846109f3565b915081905092915050565b6000602082019050610a9f60008301846109d5565b92915050565b6000604082019050610aba60008301856109c6565b610ac76020830184610a64565b9392505050565b6000606082019050610ae360008301866109d5565b610af060208301856109d5565b610afd6040830184610a64565b949350505050565b6000604082019050610b1a60008301856109d5565b610b276020830184610a64565b9392505050565b6000602082019050610b4360008301846109e4565b92915050565b60006020820190508181036000830152610b6281610a24565b9050919050565b6000602082019050610b7e6000830184610a64565b92915050565b6000604082019050610b996000830185610a64565b610ba660208301846109d5565b9392505050565b6000604082019050610bc26000830185610a64565b610bcf60208301846109c6565b9392505050565b6000604051905081810181811067ffffffffffffffff82111715610bfd57610bfc610d54565b5b8060405250919050565b600067ffffffffffffffff821115610c2257610c21610d54565b5b601f19601f8301169050602081019050919050565b600081519050919050565b600082825260208201905092915050565b600081905092915050565b6000610c6982610c8e565b9050919050565b6000610c7b82610c8e565b9050919050565b60008115159050919050565b600073ffffffffffffffffffffffffffffffffffffffff82169050919050565b6000819050919050565b6000610cc382610cee565b9050919050565b6000610cd582610cdc565b9050919050565b6000610ce782610c8e565b9050919050565b6000610cf982610d00565b9050919050565b6000610d0b82610c8e565b9050919050565b82818337600083830152505050565b60005b83811015610d3f578082015181840152602081019050610d24565b83811115610d4e576000848401525b50505050565b7f4e487b7100000000000000000000000000000000000000000000000000000000600052604160045260246000fd5b610d8c81610c5e565b8114610d9757600080fd5b50565b610da381610c70565b8114610dae57600080fd5b50565b610dba81610c82565b8114610dc557600080fd5b50565b610dd181610cae565b8114610ddc57600080fd5b5056fea2646970667358221220e42b7fdd190f9014aa4188bfa49037327f87c6c6ec1e658b06ad330f03944cb864736f6c63430008000033",
  "immutableReferences": {},
  "source": "// SPDX-License-Identifier: MIT\npragma solidity ^0.8.0;\n\nimport '@openzeppelin/contracts/token/ERC20/IERC20.sol';\n\ncontract PaymentProcessor {\n  address public admin;\n  IERC20 public token;\n\n  //----------- Events -----------//\n\n  event ContractRegistered (address indexed _from, address indexed _to, uint _amount, uint _waybillID, uint indexed _date);\n  event TokenSold (address indexed _from, uint _amount, uint indexed _date);\n  event TokenBought (address indexed _to, uint _amount, uint indexed _date);\n  event PaidReceiver(string indexed _waybillID, address indexed _from, uint _amount, address _to, uint indexed _date);\n  event AmountFrozen(string indexed _waybillID, address indexed _from, uint _amount, address _to, uint indexed _date);\n\n  event PaymentDone(\n    address payer,\n    uint amount,\n    uint paymentId,\n    uint date\n  );\n\n  //----------- Admin -----------//\n\n\n  modifier onlyAdmin() {\n    require(msg.sender == admin, \"Caller is not admin\");\n    _;\n  }\n\n//  constructor(address adminAddress, address tokenAddress) public {\n  constructor( address tokenAddress) public {\n    admin = msg.sender;\n//    admin = adminAddress;\n    token = IERC20(tokenAddress);\n  }\n\n\n  //----------- Tokenomics -----------//\n  function userToContract(string memory _paymentID, uint _amount) public {\n    token.transferFrom(msg.sender, address(this), _amount);\n    emit AmountFrozen(_paymentID, msg.sender, _amount, address(this), block.timestamp);\n  }\n\n\n  function transferFromContractToReceiver(address payable _to, uint _amount, string memory _paymentID, address _from) external {\n    token.transfer(_to, _amount);\n    emit PaidReceiver(_paymentID, _from, _amount, _to, block.timestamp);\n  }\n\n  function buyToken(uint _amount) external {\n    token.transfer(msg.sender, _amount);\n    emit TokenBought(msg.sender, _amount, block.timestamp);\n  }\n\n  function sellToken(uint _amount) public {\n    token.transferFrom(msg.sender, address(this), _amount);\n    emit TokenSold(msg.sender, _amount, block.timestamp);\n  }\n\n\n\n\n  //  function pay(uint amount, uint paymentId) external {\n  //    token.transferFrom(msg.sender, admin, amount);\n  //    emit PaymentDone(msg.sender, amount, paymentId, block.timestamp);\n  //  }\n\n\n  //----------- Other  -----------//\n  //   function newAdmin() public {\n  //     admin = msg.sender;\n  //   }\n\n  function resetToken(address _tokenAddress) external {\n    token = IERC20(_tokenAddress);\n  }\n\n  function balanceOfContractToken() onlyAdmin external view returns(uint) {\n    return token.balanceOf(address(this));\n  }\n}\n",
  "sourcePath": "E:\\Prj-Practice\\BlockChain\\Barpin\\Waybill_Front_back_Solidity_FromSample\\contracts\\PaymentProcessor.sol",
  "compiler": {
    "name": "solc",
    "version": "0.8.0+commit.c7dfd78e.Emscripten.clang"
  },
  "schemaVersion": "3.4.2",
  "updatedAt": "2022-02-17T13:10:09.061Z",
  "networkType": "ethereum",
  "devdoc": {
    "kind": "dev",
    "methods": {},
    "version": 1
  },
  "userdoc": {
    "kind": "user",
    "methods": {},
    "version": 1
  }
}